:020000040800F2
:1000000000040020450100084D0100084F010008D0
:1000100051010008530100085501000800000000CC
:100020000000000000000000000000005701000870
:1000300059010008000000005B0100085D01000894
:100040005F0100085F0100085F0100085F01000810
:100050005F0100085F0100088D0100085F010008D2
:100060005F0100085F0100085F0100085F010008F0
:100070005F0100085F0100085F0100085F010008E0
:100080005F0100085F0100085F0100085F010008D0
:100090005F0100085F0100085F0100085F010008C0
:1000A0005F0100085F0100085F0100085F010008B0
:1000B0005F0100085F0100085F0100085F010008A0
:1000C0005F0100085F0100085F0100085F01000890
:1000D0005F0100085F0100085F0100085F01000880
:1000E000B10100085F0100085F0100085F0100081E
:1000F0005F0100085F0100085F0100085F01000860
:100100005F0100085F0100085F0100085F0100084F
:100110005F0100085F0100085F0100085F0100083F
:100120005F0100085F0100085F0100085F0100082F
:10013000DFF80CD000F018F800480047130700085B
:10014000000400200648804706480047FEE7FEE717
:10015000FEE7FEE7FEE7FEE7FEE7FEE7FEE7FEE777
:100160009506000831010008064C074D06E0E068DE
:1001700040F0010394E8070098471034AC42F6D3EE
:10018000FFF7DAFF200700083007000810B501204C
:1001900000F026F840B10548006880F020000349CF
:1001A0000860012000F016F810BD00000C0C0140A2
:1001B00010B54FF4005000F013F840B10448006847
:1001C00080F0010002490860481400F003F810BDF7
:1001D0000C0C014001490860704700001404014004
:1001E00001460020034A12680A400AB1012000E0DB
:1001F0000020704714040140002123498279002A1D
:100200003AD00A46126803689A430B461A600A1DE0
:10021000126803689A430B1D1A60027911440A6838
:1002200003681A430A60184A0832126803689A433E
:10023000154B08331A601A1D126803689A43124B53
:100240000C331A604279102A0ED11A1F1268036803
:100250001A430D4B08331A601A1D126803681A43BB
:10026000094B0C331A600DE00749427911440A68C2
:1002700003681A430A6005E0027911440A680368BA
:100280009A430A6070470000000401400EB5012146
:10029000052000F07BF900F01DF90120ADF8080001
:1002A00004208DF80B0002A9194800F055F8002130
:1002B000084600F031F80120009000208DF804007D
:1002C00008208DF8050001208DF806006846FFF72C
:1002D00093FF4FF40050ADF8080004208DF80B0098
:1002E00002A90C4800F038F80D21022000F014F8A3
:1002F0004FF40050009000208DF804000C208DF881
:10030000050001208DF806006846FFF775FF0EBD59
:10031000000801400010014030B500228B071C0F7F
:100320000F2303FA04F20B4B8C1053F82430934341
:10033000084C8D1044F8253023468C1053F8243097
:100340008C07240F00FA04F42343024C8D1044F868
:10035000253030BD080001402DE9F041024600255E
:100360000026002000230024002791F803C00CF091
:100370000F0591F803C00CF0100CBCF1000F03D076
:1003800091F802C04CEA050591F800C0BCF1000FDD
:1003900031D0146800202BE04FF0010C0CFA00F370
:1003A000B1F800C00CEA03069E4220D183004FF052
:1003B0000F0C0CFA03F7BC4305FA03FC4CEA0404E7
:1003C00091F803C0BCF1280F06D14FF0010C0CFAD4
:1003D00000FCC2F814C00AE091F803C0BCF1480F59
:1003E00005D14FF0010C0CFA00FCC2F810C0401C03
:1003F0000828D1D31460B1F800C0BCF1FF0F34DD80
:10040000546800202EE000F1080C4FF0010808FAB3
:100410000CF3B1F800C00CEA03069E4221D1830020
:100420004FF00F0C0CFA03F7BC4305FA03FC4CEA3F
:10043000040491F803C0BCF1280F05D100F1080CA9
:1004400008FA0CF8C2F8148091F803C0BCF1480F08
:1004500007D100F1080C4FF0010808FA0CF8C2F8B7
:100460001080401C0828CED35460BDE8F0810161A3
:100470007047000008B50121082000F087F810201F
:100480008DF8030003208DF802002020ADF8000055
:1004900069460F48FFF760FF0120ADF8000069468C
:1004A0000B48FFF759FF0220ADF8000069460848E5
:1004B000FFF752FF20210648FFF7D9FF012104482A
:1004C000FFF7D5FF02210248FFF7D1FF08BD00006A
:1004D000000C014008B54FF4C06000F04DF8062054
:1004E0008DF8000001208DF801008DF802008DF8D4
:1004F0000100684600F008F828208DF800006846E2
:1005000000F002F808BD000070B5002100230F22A2
:10051000C47804B3154C246804F4E064C4F5E064C2
:10052000210AC1F10403CA40447804FA03F1847833
:100530001440214309010E4C0678A155047804F0BB
:100540001F050124AC4005786D11AD0005F1E025D3
:10055000C5F8004109E0047804F01F050124AC400F
:10056000044D0678761145F8264070BD0CED00E08C
:1005700000E400E080E100E002490143024A11602A
:10058000704700000000FA050CED00E029B1064AB2
:1005900092690243044B9A6104E0034A92698243E0
:1005A000014B9A61704700000010024010B500F046
:1005B00001F810BD0CB50020019000903348006890
:1005C00040F480303149086000BF3048006800F4D2
:1005D000003000900198401C0190009818B90198D3
:1005E000B0F5A06FF1D12948006800F4003010B1D7
:1005F0000120009001E0002000900098012843D1E4
:100600002348006840F0100021490860084600684F
:1006100020F0030008600846006840F0020008600F
:100620001A484068194948600846406848600846CA
:10063000406840F4806048600846406820F47C10C0
:1006400048600846406840F4E81048600846006882
:1006500040F08070086000BF0C48006800F0007037
:100660000028F9D00948406820F003000749486095
:100670000846406840F00200486000BF03484068F8
:1006800000F00C000828F9D10CBD00000010024059
:100690000020024010B51348006840F001001149E5
:1006A000086008464068104908400E4948600846FE
:1006B00000680E4908400B4908600846006820F4AD
:1006C000802008600846406820F4FE0048604FF42F
:1006D0001F008860FFF76AFF4FF000600449086060
:1006E00010BD0000001002400000FFF8FFFFF6FE02
:1006F00008ED00E002E008C8121F08C1002AFAD184
:1007000070477047002001E001C1121F002AFBD191
:100710007047FFF7AFFEFFF7B9FD00BFFEE700002F
:100720003007000800000020000400000407000853
:0400000508000131BD
:00000001FF
