:020000040800F2
:1000000000040020450100084D0100084F010008D0
:1000100051010008530100085501000800000000CC
:100020000000000000000000000000005701000870
:1000300059010008000000005B0100085D01000894
:100040005F0100085F0100085F0100085F01000810
:100050005F0100085F0100085F0100085F01000800
:100060005F0100085F0100085F0100085F010008F0
:100070005F0100085F0100085F0100085F010008E0
:100080005F0100085F0100085F0100085F010008D0
:100090005F0100085F0100085F0100085F010008C0
:1000A0005F0100085F0100085F0100085F010008B0
:1000B0005F0100085F0100085F0100085F010008A0
:1000C0005F0100085F0100085F0100085F01000890
:1000D0005F0100085F0100085F0100085F01000880
:1000E0005F0100085F0100085F0100085F01000870
:1000F0005F0100085F0100085F0100085F01000860
:100100005F0100085F0100085F0100085F0100084F
:100110005F0100085F0100085F0100085F0100083F
:100120005F0100085F0100085F0100085F0100082F
:10013000DFF80CD000F018F800480047CD020008A6
:10014000000400200648804706480047FEE7FEE717
:10015000FEE7FEE7FEE7FEE7FEE7FEE7FEE7FEE777
:10016000AB02000831010008064C074D06E0E068CC
:1001700040F0010394E8070098471034AC42F6D3EE
:10018000FFF7DAFF0C0300081C0300082DE9F0411B
:10019000024600250026002000230024002791F8B5
:1001A00008C00CF00F0591F808C00CF0100CBCF161
:1001B000000F03D0D1F804C04CEA050591F800C047
:1001C000BCF1000F31D0146800202BE04FF0010C7F
:1001D0000CFA00F3D1F800C00CEA03069E4220D1CD
:1001E00083004FF00F0C0CFA03F7BC4305FA03FC35
:1001F0004CEA0404D1F808C0BCF1280F06D14FF036
:10020000010C0CFA00FCC2F814C00AE0D1F808C0D6
:10021000BCF1480F05D14FF0010C0CFA00FCC2F8FC
:1002200010C0401C0828D1D31460D1F800C0BCF124
:10023000FF0F34D9546800202EE000F1080C4FF075
:10024000010808FA0CF3D1F800C00CEA03069E423C
:1002500021D183004FF00F0C0CFA03F7BC4305FAD1
:1002600003FC4CEA0404D1F808C0BCF1280F05D106
:1002700000F1080C08FA0CF8C2F81480D1F808C094
:10028000BCF1480F07D100F1080C4FF0010808FA43
:100290000CF8C2F81080401C0828CED35460BDE88A
:1002A000F0814161704701617047704702E008C802
:1002B000121F08C1002AFAD170477047002001E0E0
:1002C00001C1121F002AFBD1704700000EB50D4876
:1002D000806940F008000B498861012000901020DF
:1002E00002900320019069460748FFF74FFF012164
:1002F0000548FFF7D6FF01210348FFF7D4FF002090
:100300000EBD000000100240000C01401C0300085C
:0C0310000000002000040000BC020008F7
:0400000508000131BD
:00000001FF
